:020000040800F2
:1000000000280020D1130008C1110008C711000802
:10001000CD110008D3110008D9110008000000001C
:10002000000000000000000000000000DF110008D8
:10003000EB11000800000000F7110008031200088F
:1000400019140008191400081914000819140008DC
:1000500019140008191400081914000819140008CC
:1000600019140008191400081914000819140008BC
:1000700019140008191400081914000819140008AC
:10008000191400081914000819140008191400089C
:10009000191400081914000819140008191400088C
:1000A000191400081914000819140008191400087C
:1000B00011120008191400080000000019140008AB
:1000C00019140008000000000000000019140008C6
:1000D00000000000191400081914000800000000B6
:1000E0001914000819140008191400080000000071
:1000F0000000000000000000000000000000000000
:0C01000000000000000000005FF808F1A3
:10010C0010B5054C237833B9044B13B10448AFF345
:10011C0000800123237010BD94000020000000001B
:10012C00482A000808B5034B1BB103490348AFF339
:10013C00008008BD0000000098000020482A00083C
:10014C0080B400AF064B1B68012B04D1044B00227A
:10015C001A60012300E000231846BD4680BC70479E
:10016C00B000002080B500AF214B1B68214A136002
:10017C00214B1B681E4A13604FF400511F4801F0BD
:10018C0031FC03461A461C4B1A601A4B1A68184B62
:10019C001B689A4229D1164B1A68174B1B689A4256
:1001AC0023D1174B1A68144B1B689A420ED0124B72
:1001BC001B68134A1360104B1B68002B15D1114B95
:1001CC0001221A60104BC8221A600EE00E4B1B68FD
:1001DC00013B0D4A13600C4B1B68002B05D1084BDF
:1001EC0001221A60084BC8221A6000BF80BD00BFF4
:1001FC000400002000000020080000200010014036
:10020C000C000020B00000201000002080B400AFD3
:10021C00064B1B68012B04D1044B00221A600123EE
:10022C0000E000231846BD4680BC7047B400002097
:10023C0080B500AF214B1B68214A1360214B1B6812
:10024C001E4A13604FF480411F4801F0CBFB03465C
:10025C001A461C4B1A601A4B1A68184B1B689A42A8
:10026C0029D1164B1A68174B1B689A4223D1174B8E
:10027C001A68144B1B689A420ED0124B1B68134A17
:10028C001360104B1B68002B15D1114B01221A6007
:10029C00104BC8221A600EE00E4B1B68013B0D4A36
:1002AC0013600C4B1B68002B05D1084B01221A6004
:1002BC00084BC8221A6000BF80BD00BF1800002088
:1002CC00140000201C000020001001402000002021
:1002DC00B40000202400002080B400AF064B1B6843
:1002EC00012B04D1044B00221A60012300E00023EF
:1002FC001846BD4680BC7047B800002080B500AFE2
:10030C00214B1B68214A1360214B1B681E4A13604A
:10031C004FF400411F4801F065FB03461A461C4B85
:10032C001A601A4B1A68184B1B689A4229D1164B43
:10033C001A68174B1B689A4223D1174B1A68144B37
:10034C001B689A420ED0124B1B68134A1360104B59
:10035C001B68002B15D1114B01221A60104BC822BF
:10036C001A600EE00E4B1B68013B0D4A13600C4BE0
:10037C001B68002B05D1084B01221A60084BC822C0
:10038C001A6000BF80BD00BF2C0000202800002098
:10039C00300000200010014034000020B800002084
:1003AC003800002080B483B000AF78607B68012BEC
:1003BC00B8BF012318460C37BD4680BC704780B4CB
:1003CC0083B000AF786039607A683B689A4201DD8F
:1003DC003B687B607B68012BB8BF012318460C3748
:1003EC00BD4680BC7047000080B500AF834B1B68D6
:1003FC00013B052B00F20C8201A252F823F000BF46
:10040C00250400086F0400083B0500083D060008A1
:10041C0009070008D3070008042000F069FC042039
:10042C0000F0C0FC764B1B68764A1360764B1B6859
:10043C00764A1360764B1B68764A13606F4B022228
:10044C001A60754B01221A60734B1B68734A136058
:10045C00724B1B68724A1360714B1B68714A1360B4
:10046C00DFE1704B1B68002B20D06F4B00221A6011
:10047C006E4B00221A60644B1B684FF47A7202FBBD
:10048C0003F3184600F0CEFE4FF47A7000F04CFFE8
:10049C005D4B1B685D4A13605B4B1A685C4B1B68B9
:1004AC001344584A13605F4B00221A60002000F07E
:1004BC001FFC022000F076FC5C4B1B68002B18D054
:1004CC005A4B00221A604FF47A7000F02DFF4F4BFC
:1004DC001B68012B04DD4D4B1B68013B4B4A136021
:1004EC00484B1B68012B04DD464B1B68013B454AFE
:1004FC001360464B1B681846FFF754FF034618461B
:10050C0000F072FB3F4B1B681846FFF74BFF03468E
:10051C00184600F0ABFB444B1B68002B00F07A81B3
:10052C00364B03221A603E4B01221A6072E13C4B9F
:10053C001B68002B1DD03C4B00221A603B4B002249
:10054C001A60334B1B684FF47A7202FB03F31846A4
:10055C0000F068FE4FF47A7000F0E6FE2C4B1B683E
:10056C002C4A13602A4B1B68264A13602C4B002222
:10057C001A60012000F0BCFB022000F013FC2B4B96
:10058C001B68002B18D0294B00221A604FF47A708C
:10059C0000F0CAFE1F4B1B68012B04DD1D4B1B68B2
:1005AC00013B1C4A1360174B1B68012B04DD154BD8
:1005BC001B68013B134A1360164B1B68144A1268E4
:1005CC0011461846FFF7FBFE0346184600F00CFBDD
:1005DC000C4B1B681846FFF7E5FE0346184600F067
:1005EC0045FB114B1B68002B00F01681034B0422BA
:1005FC001A600A4B01221A600EE100BFBC000020F9
:10060C003C000020FC00002040000020F8000020EE
:10061C004400002000010020480000204C00002075
:10062C005000002054000020D8000020F0000020D2
:10063C007D4B1B68002B20D07C4B00221A607C4B1E
:10064C0000221A607B4B1B684FF47A7202FB03F397
:10065C00184600F0E7FD4FF47A7000F065FE754B1C
:10066C001B68754A1360734B1A68744B1B681344F0
:10067C00734A13606C4B00221A60022000F038FBA6
:10068C00002000F08FFB6A4B1B68002B18D0684BC6
:10069C0000221A604FF47A7000F046FE664B1B681D
:1006AC00012B04DD644B1B68013B634A1360644BF4
:1006BC001B68012B04DD624B1B68013B604A136015
:1006CC005F4B1B681846FFF76DFE0346184600F09B
:1006DC008BFA594B1B681846FFF764FE0346184605
:1006EC0000F0C4FA514B1B68002B00F09780554B5F
:1006FC0005221A60544B01221A608FE0524B1B6882
:10070C00002B1DD0494B00221A60494B00221A6065
:10071C004A4B1B684FF47A7202FB03F3184600F045
:10072C0081FD4FF47A7000F0FFFD444B1B68474A83
:10073C001360424B1B68424A1360434B00221A6001
:10074C00022000F0D5FA012000F02CFB384B1B687E
:10075C00002B18D0364B00221A604FF47A7000F040
:10076C00E3FD3A4B1B68012B04DD384B1B68013B46
:10077C00364A1360324B1B68012B04DD304B1B686F
:10078C00013B2F4A13602E4B1B681846FFF70AFEDD
:10079C000346184600F028FA2C4B1B68274A1268AF
:1007AC0011461846FFF70BFE0346184600F05EFA9A
:1007BC001E4B1B68002B33D0224B02221A60244B99
:1007CC0001221A602CE001222021224801F021F99B
:1007DC00012280211F4801F01CF9012240211D48F3
:1007EC0001F017F901224FF480711A4801F011F948
:1007FC0001224FF48061174801F00BF901224FF4EC
:10080C000071144801F005F90E4B07221A6008E03C
:10081C0000BF06E000BF04E000BF02E000BF00E044
:10082C0000BF00BF80BD00BF4C000020D8000020DE
:10083C00F000002040000020F800002044000020C0
:10084C00FC000020BC00002048000020000100201B
:10085C00540000200008014080B500AFFFF770FC89
:10086C000346012B15D10C4B1B6801330A4A13604C
:10087C00094B1B68032B02DD074B00221A60064B49
:10088C001B68064A52F82330054A1360054B0022B8
:10089C001A6000BF80BD00BFC400002058000020BB
:1008AC00C0000020CC00002080B500AFA24B1B681C
:1008BC00002B04D1A14B1B680E2B00F035819F4BF4
:1008CC001B680A3B032B00F2318101A252F823F082
:1008DC00ED0800080B090008DB090008890A00086C
:1008EC00954B1B68012B40F02381944B0E221A6010
:1008FC00934B01221A60904B00221A6018E1914B25
:10090C001B68002B08D18E4B06221A608D4B0122DE
:10091C001A60894B01221A608B4B1B68012B0FD17B
:10092C00894B00221A604FF4FA7000F0FDFC202174
:10093C00864801F086F84FF48071844801F081F804
:10094C00FFF764FC0346012B0CD1814B1B68622B17
:10095C0005DC7F4B1B6801337D4A136002E07C4B46
:10096C0001221A60022000F03FF9794B1B681846EF
:10097C0000F07CF9FFF7B0FC0346012B40F0DA8065
:10098C00734B1B68734A13606C4B0A221A60724BD0
:10099C0000221A606F4B1A68704B1B68D31A002B1D
:1009AC000BDD6C4B1A686D4B1B68D31A6C4A1360C9
:1009BC006B4B1B686B4A1360BCE0664B0A221A60D7
:1009CC00674B08221A60654B02221A60B2E05D4B3D
:1009DC001B68002B08D15A4B06221A60594B012276
:1009EC001A60554B01221A60574B1B68012B0FD113
:1009FC00554B00221A604FF4FA7000F095FC402120
:100A0C00524801F01EF84FF40071504801F019F8EB
:100A1C00FFF7FCFB0346012B0CD1534B1B68622BDD
:100A2C0005DC514B1B6801334F4A136002E04E4BFF
:100A3C0001221A60032000F0D7F84B4B1B681846B4
:100A4C0000F014F9FFF748FC0346012B40F08E80B0
:100A5C00454B1B68414A1360384B0A221A603E4BC7
:100A6C0000221A603D4B1A683D4B1B681344394AEF
:100A7C001360384B1B68364A136077E0314B1B68A8
:100A8C00002B08D12E4B06221A602E4B01221A6025
:100A9C00294B01221A602C4B1B68012B0FD12A4BBE
:100AAC0000221A604FF4FA7000F03EFC80212748B7
:100ABC0000F0C7FF4FF48061244800F0C2FFFFF73D
:100ACC00A5FB0346012B0CD1264B1B68622B05DCC6
:100ADC00244B1B680133234A136002E0214B012293
:100AEC001A60042000F080F81E4B1B68184600F0BA
:100AFC00BDF8FFF7F1FB0346012B39D1194B1B68ED
:100B0C00174A13600D4B0A221A60134B00221A600D
:100B1C00124B1A68124B1B6813440E4A13600D4B90
:100B2C001B680B4A136023E000BF22E000BF20E0EB
:100B3C0000BF1EE000BF1CE0C8000020C000002069
:100B4C00BC000020CC000020F00000200008014078
:100B5C00680000203C000020C4000020440000205D
:100B6C0040000020700000206C00002000BF00E05E
:100B7C0000BF80BD80B485B000AF7860094A7B6847
:100B8C0013441B7803F07F03FB73074BDB6823F0E4
:100B9C007F02FB7B04491343CB6000BF1437BD4677
:100BAC0080BC704774000020000C014080B485B0FC
:100BBC0000AF78600A4A7B6813441B7803F07F030C
:100BCC00FB73084BDB6823F47E53FA7BD20111468E
:100BDC00044A0B43D36000BF1437BD4680BC70473A
:100BEC0074000020000C014080B584B000AF786028
:100BFC007B681B4A82FB03129210DB17D31AFB6033
:100C0C007A68174B83FB02139910D317C91A0B463A
:100C1C009B000B445B00D31ABB60124B1B68002B70
:100C2C000DD100220221104800F0F3FE0122042114
:100C3C000D4800F0EEFEF868FFF79CFF0CE0012277
:100C4C000221094800F0E5FE00220421064800F0CC
:100C5C00E0FEB868FFF78EFF00BF1037BD4680BDC1
:100C6C0067666666D00000200008014080B584B03D
:100C7C0000AF78607B681B4A82FB03129210DB1773
:100C8C00D31AFB607A68174B83FB02139910D317A6
:100C9C00C91A0B469B000B445B00D31ABB60124B6A
:100CAC001B68002B0DD100220821104800F0B1FE6A
:100CBC00012210210D4800F0ACFEF868FFF776FF1A
:100CCC000CE001220821094800F0A3FE00221021AB
:100CDC00064800F09EFEB868FFF768FF00BF1037AB
:100CEC00BD4680BD67666666D000002000080140E6
:100CFC0080B582B000AF78607B68022B29D07B680E
:100D0C00022B36DC7B68002B03D07B68012B10D0C8
:100D1C002FE001222021224800F07BFE00228021BE
:100D2C001F4800F076FE012240211D4800F071FEA4
:100D3C0032E0012220211A4800F06BFE01228021B2
:100D4C00174800F066FE00224021154800F061FEB5
:100D5C0022E000222021124800F05BFE01228021BB
:100D6C000F4800F056FE012240210D4800F051FEC4
:100D7C0012E001224FF48071094800F04AFE012272
:100D8C004FF48061064800F044FE01224FF40071DC
:100D9C00034800F03EFE00BF00BF0837BD4680BDD3
:100DAC000008014080B582B000AF78607B68022BF0
:100DBC002FD07B68022B3FDC7B68002B03D07B6839
:100DCC00012B13D038E001224FF48071264800F03B
:100DDC0020FE00224FF48061234800F01AFE01220D
:100DEC004FF40071204800F014FE38E001224FF45B
:100DFC0080711D4800F00DFE01224FF480611A48ED
:100E0C0000F007FE00224FF40071174800F001FEBD
:100E1C0025E000224FF48071134800F0FAFD012206
:100E2C004FF48061104800F0F4FD01224FF4007182
:100E3C000D4800F0EEFD12E001224FF480710A48DB
:100E4C0000F0E7FD01224FF48061074800F0E1FD5E
:100E5C0001224FF40071044800F0DBFD00BF00BF1D
:100E6C000837BD4680BD00BF0008014080B500AF0B
:100E7C0000F0CEFA00F01AF800F0A0F800F052F8EA
:100E8C00084801F023FA084B01221A60FA2000F0FE
:100E9C0017FA4FF4FA7000F047FAFFF705FDFFF769
:100EAC00A3FAFAE704010020BC00002080B590B042
:100EBC0000AF07F1180328220021184601F0B6FDF7
:100ECC003B1D00221A605A609A60DA601A61022394
:100EDC00BB610123BB621023FB6200237B6307F120
:100EEC001803184600F0C6FD0346002B01D000F095
:100EFC0005F90F237B600023BB600023FB600023FC
:100F0C003B6100237B613B1D0021184601F032F848
:100F1C000346002B01D000F0F1F800BF4037BD466E
:100F2C0080BD000080B586B000AF07F10803002239
:100F3C001A605A609A60DA603B4600221A605A6066
:100F4C001D4B4FF080421A601B4B41F63F725A60AA
:100F5C00194B00229A60184B0922DA60164B0022BA
:100F6C001A61154B00229A61134801F05FF9034690
:100F7C00002B01D000F0C2F84FF48053BB6007F196
:100F8C00080319460C4801F0DDFA0346002B01D08A
:100F9C0000F0B4F800233B6000237B603B4619460D
:100FAC00054801F0B5FC0346002B01D000F0A6F873
:100FBC0000BF1837BD4680BD0401002080B588B045
:100FCC0000AF07F1100300221A605A609A60DA60D1
:100FDC002F4B9B692E4A43F0100393612C4B9B695A
:100FEC0003F01003FB60FB68294B9B69284A43F014
:100FFC0004039361264B9B6903F00403BB60BB683D
:10100C00234B9B69224A43F008039361204B9B6955
:10101C0003F008037B607B68002240F2FE711D48E0
:10102C0000F0F7FC002243F6FF711B4800F0F1FCC6
:10103C004FF460433B6100237B610123BB6107F1EB
:10104C0010031946154800F053FB40F2FE733B6148
:10105C0001237B610023BB610223FB6107F11003B9
:10106C0019460C4800F044FB43F6FF733B61012327
:10107C007B610023BB610223FB6107F1100319465E
:10108C00054800F035FB00BF2037BD4680BD00BFD2
:10109C000010024000080140000C0140001001400B
:1010AC0080B582B000AF786000F0D6F800F0EEF8B2
:1010BC0000F020F900F052F90E4B1B68012B0BD1FC
:1010CC000D4B1B68C3F101030B4A1360094B002243
:1010DC001A60FA2000F0F4F800F05AF9FFF742F821
:1010EC00FFF7A6F8FFF70AF9FFF7B6FB00BF0837C2
:1010FC00BD4680BDE8000020D000002080B400AFC9
:10110C0072B600BFFEE7000080B485B000AF154B8F
:10111C009B69144A43F001039361124B9B6903F0E2
:10112C000103BB60BB680F4BDB690E4A43F0805375
:10113C00D3610C4BDB6903F080537B607B680A4BFB
:10114C005B68FB60FB6823F0E063FB60FB6843F0CB
:10115C008063FB60044AFB68536000BF1437BD46D4
:10116C0080BC7047001002400000014080B584B084
:10117C0000AF78607B681B68B3F1804F13D10C4BC8
:10118C00DB690B4A43F00103D361094BDB6903F0C4
:10119C000103FB60FB68002200211C2000F071FAA7
:1011AC001C2000F08AFA00BF1037BD4680BD00BF7E
:1011BC000010024080B400AFFEE780B400AFFEE741
:1011CC0080B400AFFEE780B400AFFEE780B400AFA0
:1011DC00FEE780B400AF00BFBD4680BC704780B452
:1011EC0000AF00BFBD4680BC704780B400AF00BFED
:1011FC00BD4680BC704780B500AF00F04FF900BF12
:10120C0080BD000080B500AF024801F0ABF800BF14
:10121C0080BD00BF0401002080B400AF00BFBD46FC
:10122C0080BC704780B483B000AF7860074B1B68FC
:10123C007A6892FBF3F3064A1360064B00221A609D
:10124C0000BF0C37BD4680BC704700BF8400002037
:10125C00D4000020D800002080B400AF094B1B68DC
:10126C00002B0BDD074B1B68013B064A1360054B3B
:10127C001B68002B02D1044B01221A6000BFBD4633
:10128C0080BC7047D4000020D800002080B400AF90
:10129C00094B1B68002B0BDD074B1B68013B064AF7
:1012AC001360054B1B68002B02D1044B01221A6002
:1012BC0000BFBD4680BC7047DC000020E000002071
:1012CC0080B483B000AF7860074B1B687A6892FBE0
:1012DC00F3F3064A1360064B00221A6000BF0C376A
:1012EC00BD4680BC704700BF84000020E400002095
:1012FC00E800002080B400AF094B1B68002B0BDD0D
:10130C00074B1B68013B064A1360054B1B68002BFF
:10131C0002D1044B01221A6000BFBD4680BC70474D
:10132C00E4000020E800002080B483B000AF7860B7
:10133C00074B1B687A6892FBF3F3064A1360064B63
:10134C0000221A6000BF0C37BD4680BC704700BF3E
:10135C0084000020EC000020F000002080B400AFDE
:10136C00094B1B68002B0BDD074B1B68013B064A26
:10137C001360054B1B68002B02D1044B01221A6031
:10138C0000BFBD4680BC7047EC000020F000002080
:10139C0080B400AF094B1B68013B084A1360074B34
:1013AC001B68002B05DC064B01221A60034B6422E0
:1013BC001A6000BFBD4680BC704700BF880000208B
:1013CC00F4000020FFF728FF0B480C490C4A0023BF
:1013DC0002E0D458C4500433C4188C42F9D3094ADF
:1013EC00094C002301E013600432A242FBD301F04C
:1013FC00F9FAFFF73BFD7047000000209400002035
:10140C008C2A00089400002050010020FEE7000008
:10141C0080B500AF084B1B68074A43F010031360FC
:10142C00032000F023F90F2000F008F8FFF76CFE02
:10143C000023184680BD00BF0020024080B582B05A
:10144C0000AF7860124B1A68124B1B7819464FF498
:10145C007A73B3FBF1F3B2FBF3F3184600F03BF9EC
:10146C000346002B01D001230EE07B680F2B0AD81A
:10147C00002279684FF0FF3000F003F9064A7B68D0
:10148C001360002300E0012318460837BD4680BDD9
:10149C0080000020900000208C00002080B400AF61
:1014AC00054B1B781A46054B1B681344034A136003
:1014BC0000BFBD4680BC7047900000204C0100204E
:1014CC0080B400AF024B1B681846BD4680BC704709
:1014DC004C01002080B485B000AF78607B6803F0CD
:1014EC000703FB600C4BDB68BB60BA684FF6FF036D
:1014FC001340BB60FB681A02BB68134343F0BF6325
:10150C0043F40033BB60044ABB68D36000BF14379C
:10151C00BD4680BC704700BF00ED00E080B400AF5A
:10152C00044BDB681B0A03F007031846BD4680BC5E
:10153C00704700BF00ED00E080B483B000AF0346FD
:10154C00FB7197F90730002B0BDBFB7903F01F02C3
:10155C00064997F907305B09012000FA02F241F8BD
:10156C00232000BF0C37BD4680BC704700E100E073
:10157C0080B483B000AF03463960FB7197F9073034
:10158C00002B0ADB3B68DAB20C4997F907301201E1
:10159C00D2B20B4483F800230AE03B68DAB2084964
:1015AC00FB7903F00F03043B1201D2B20B441A7601
:1015BC0000BF0C37BD4680BC704700BF00E100E0A7
:1015CC0000ED00E080B489B000AFF860B9607A60DB
:1015DC00FB6803F00703FB61FB69C3F10703042BF2
:1015EC0028BF0423BB61FB690433062B02D9FB69BA
:1015FC00033B00E000237B614FF0FF32BB6902FA32
:10160C0003F3DA43BB681A407B699A404FF0FF3111
:10161C007B6901FA03F3D9437B680B4013431846EB
:10162C002437BD4680BC704780B582B000AF78606F
:10163C007B68013BB3F1807F01D301230FE00A4AA1
:10164C007B68013B53600F214FF0FF30FFF790FF99
:10165C00054B00229A60044B07221A60002318469F
:10166C000837BD4680BD00BF10E000E080B582B0F9
:10167C0000AF78607868FFF72DFF00BF0837BD46D4
:10168C0080BD80B586B000AF0346B9607A60FB734D
:10169C0000237B61FFF742FF78617A68B96878694B
:1016AC00FFF790FF024697F90F3011461846FFF7E7
:1016BC005FFF00BF1837BD4680BD80B582B000AF5C
:1016CC000346FB7197F907301846FFF735FF00BF4B
:1016DC000837BD4680BD80B582B000AF78607868B1
:1016EC00FFF7A2FF034618460837BD4680BD000031
:1016FC0080B48BB000AF7860396000237B6200232C
:10170C003B6248E101227B6A02FA03F3FB613B680E
:10171C001B68FA691340BB61BA69FB699A4240F0D5
:10172C0037813B685B68A34A93425ED0A14A9342DF
:10173C0075D8A14A934258D09F4A93426FD89F4A7A
:10174C00934252D09D4A934269D89D4A93424CD0C1
:10175C009B4A934263D89B4A934246D0994A934200
:10176C005DD8122B2AD8122B59D801A252F823F08B
:10177C00F7170008D1170008E31700082518000810
:10178C002B1800082B1800082B1800082B18000821
:10179C002B1800082B1800082B1800082B18000811
:1017AC002B1800082B1800082B1800082B18000801
:1017BC002B180008D9170008ED170008824A93422D
:1017CC0013D02CE03B68DB683B6229E03B68DB68AC
:1017DC0004333B6224E03B68DB6808333B621FE068
:1017EC003B68DB680C333B621AE03B689B68002B60
:1017FC0002D104233B6213E03B689B68012B05D1AB
:10180C0008233B627B68FA691A6109E008233B6292
:10181C007B68FA695A6103E000233B6200E000BF79
:10182C00BB69FF2B01D87B6801E07B6804337B61CB
:10183C00BB69FF2B02D87B6A9B0002E07B6A083BEA
:10184C009B003B617B691A680F213B6901FA03F32A
:10185C00DB431A40396A3B6901FA03F31A437B698B
:10186C001A603B685B6803F08053002B00F090809B
:10187C00564B9B69554A43F001039361534B9B694B
:10188C0003F00103BB60BB68514A7B6A9B080233BF
:10189C0052F82330FB607B6A03F003039B000F229A
:1018AC0002FA03F3DB43FA681340FB607B68494A96
:1018BC0093420DD07B68484A934207D07B68474AD5
:1018CC00934201D1022304E0032302E0012300E050
:1018DC0000237A6A02F0030292009340FA681343E1
:1018EC00FB603B497B6A9B080233FA6841F8232072
:1018FC003B685B6803F48013002B06D0384B9A6866
:10190C003749BB6913438B6006E0354B9A68BB695A
:10191C00DB43334913408B603B685B6803F4001373
:10192C00002B06D02E4BDA682D49BB691343CB60D4
:10193C0006E02B4BDA68BB69DB4329491340CB60CB
:10194C003B685B6803F40033002B06D0244B5A68C9
:10195C002349BB6913434B6006E0214B5A68BB69B2
:10196C00DB431F4913404B603B685B6803F48033D7
:10197C00002B06D01A4B1A681949BB6913430B602C
:10198C0006E0174B1A68BB69DB43154913400B6023
:10199C007B6A01337B623B681A687B6A22FA03F329
:1019AC00002B7FF4AFAE00BF00BF2C37BD4680BC10
:1019BC00704700BF000032100000311000002210F0
:1019CC000000211000001210000011100010024045
:1019DC000000014000080140000C014000100140D3
:1019EC000004014080B485B000AF78600B467B806A
:1019FC007B689A687B881340002B02D00123FB7311
:101A0C0001E00023FB73FB7B18461437BD4680BCFA
:101A1C00704780B483B000AF78600B467B80134670
:101A2C007B707B78002B03D07A887B681A6103E08B
:101A3C007B881A047B681A6100BF0C37BD4680BCDA
:101A4C00704780B485B000AF78600B467B807B68B4
:101A5C00DB68FB607A88FB6813401A04FB68D94387
:101A6C007B880B401A437B681A6100BF1437BD4654
:101A7C0080BC704780B586B000AF78607B68002B67
:101A8C0001D101236CE27B681B6803F00103002B7E
:101A9C0000F08780924B5B6803F00C03042B0CD096
:101AAC008F4B5B6803F00C03082B12D18C4B5B68DB
:101ABC0003F48033B3F5803F0BD1894B1B6803F4DF
:101ACC000033002B6CD07B685B68002B68D1012342
:101ADC0046E27B685B68B3F5803F06D1804B1B68A0
:101AEC007F4A43F4803313602EE07B685B68002BE5
:101AFC000CD17B4B1B687A4A23F480331360784BF0
:101B0C001B68774A23F4802313601DE07B685B68B5
:101B1C00B3F5A02F0CD1724B1B68714A43F4802390
:101B2C0013606F4B1B686E4A43F4803313600BE0F9
:101B3C006B4B1B686A4A23F480331360684B1B6839
:101B4C00674A23F4802313607B685B68002B13D0F7
:101B5C00FFF7B6FC386108E0FFF7B2FC02463B69C0
:101B6C00D31A642B01D90323FAE15D4B1B6803F4F0
:101B7C000033002BF0D014E0FFF7A2FC386108E032
:101B8C00FFF79EFC02463B69D31A642B01D9032351
:101B9C00E6E1534B1B6803F40033002BF0D100E05B
:101BAC0000BF7B681B6803F00203002B63D04C4B17
:101BBC005B6803F00C03002B0BD0494B5B6803F004
:101BCC000C03082B1CD1464B5B6803F48033002BB1
:101BDC0016D1434B1B6803F00203002B05D07B6826
:101BEC001B69012B01D00123BAE13D4B1B6823F08B
:101BFC00F8027B685B69DB00394913430B603AE000
:101C0C007B681B69002B20D0364B01221A60FFF732
:101C1C0057FC386108E0FFF753FC02463B69D31AC6
:101C2C00022B01D903239BE12D4B1B6803F002030C
:101C3C00002BF0D02A4B1B6823F0F8027B685B6901
:101C4C00DB00274913430B6015E0264B00221A607A
:101C5C00FFF736FC386108E0FFF732FC02463B69BF
:101C6C00D31A022B01D903237AE11D4B1B6803F015
:101C7C000203002BF0D17B681B6803F00803002BD8
:101C8C003AD07B689B69002B19D0174B01221A6044
:101C9C00FFF716FC386108E0FFF712FC02463B69BF
:101CAC00D31A022B01D903235AE10D4B5B6A03F0C3
:101CBC000203002BF0D0012000F09AFA1CE00A4B32
:101CCC0000221A60FFF7FCFB38610FE0FFF7F8FB0E
:101CDC0002463B69D31A022B08D9032340E100BF0B
:101CEC000010024000004242800442429E4B5B6A5C
:101CFC0003F00203002BE9D17B681B6803F004039B
:101D0C00002B00F0A6800023FB75974BDB6903F0DA
:101D1C008053002B0DD1944BDB69934A43F08053D5
:101D2C00D361914BDB6903F08053BB60BB6801232B
:101D3C00FB758E4B1B6803F48073002B18D18B4BF7
:101D4C001B688A4A43F480731360FFF7B9FB386150
:101D5C0008E0FFF7B5FB02463B69D31A642B01D9A7
:101D6C000323FDE0814B1B6803F48073002BF0D040
:101D7C007B68DB68012B06D17B4B1B6A7A4A43F0EC
:101D8C00010313622DE07B68DB68002B0CD1764BD2
:101D9C001B6A754A23F001031362734B1B6A724A68
:101DAC0023F0040313621CE07B68DB68052B0CD169
:101DBC006D4B1B6A6C4A43F0040313626A4B1B6A3B
:101DCC00694A43F0010313620BE0674B1B6A664AD6
:101DDC0023F001031362644B1B6A634A23F0040370
:101DEC0013627B68DB68002B15D0FFF769FB386149
:101DFC000AE0FFF765FB02463B69D31A41F28832D1
:101E0C00934201D90323ABE0574B1B6A03F0020347
:101E1C00002BEED014E0FFF753FB38610AE0FFF71C
:101E2C004FFB02463B69D31A41F28832934201D9E7
:101E3C00032395E04C4B1B6A03F00203002BEED1FD
:101E4C00FB7D012B05D1484BDB69474A23F08053BE
:101E5C00D3617B68DB69002B00F08180424B5B68AF
:101E6C0003F00C03082B61D07B68DB69022B46D195
:101E7C003F4B00221A60FFF723FB386108E0FFF7A5
:101E8C001FFB02463B69D31A022B01D9032367E0DF
:101E9C00354B1B6803F00073002BF0D17B681B6A79
:101EAC00B3F5803F08D1304B5B6823F400327B687C
:101EBC009B682D4913434B602B4B5B6823F47412C6
:101ECC007B68196A7B685B6A0B43274913434B6039
:101EDC00274B01221A60FFF7F3FA386108E0FFF78D
:101EEC00EFFA02463B69D31A022B01D9032337E0E0
:101EFC001D4B1B6803F00073002BF0D02FE01C4B24
:101F0C0000221A60FFF7DCFA386108E0FFF7D8FA14
:101F1C0002463B69D31A022B01D9032320E0124B52
:101F2C001B6803F00073002BF0D118E07B68DB69B1
:101F3C00012B01D1012313E00B4B5B68FB60FB68A9
:101F4C0003F480327B681B6A9A4206D1FB6803F467
:101F5C0070127B685B6A9A4201D0012300E0002377
:101F6C0018461837BD4680BD001002400070004076
:101F7C006000424280B584B000AF786039607B6805
:101F8C00002B01D10123D0E06A4B1B6803F007033F
:101F9C003A689A4210D9674B1B6823F007026549CF
:101FAC003B6813430B60634B1B6803F007033A68F1
:101FBC009A4201D00123B8E07B681B6803F002034E
:101FCC00002B20D07B681B6803F00403002B05D08A
:101FDC00594B5B68584A43F4E06353607B681B6859
:101FEC0003F00803002B05D0534B5B68524A43F4B3
:101FFC0060535360504B5B6823F0F0027B689B6826
:10200C004D4913434B607B681B6803F00103002BA5
:10201C0040D07B685B68012B07D1474B1B6803F4EE
:10202C000033002B15D101237FE07B685B68022B0A
:10203C0007D1414B1B6803F00073002B09D101231E
:10204C0073E03D4B1B6803F00203002B01D101230D
:10205C006BE0394B5B6823F003027B685B683649A5
:10206C0013434B60FFF72CFAF8600AE0FFF728FAED
:10207C000246FB68D31A41F28832934201D90323FA
:10208C0053E02D4B5B6803F00C027B685B689B0094
:10209C009A42EBD1274B1B6803F007033A689A422C
:1020AC0010D2244B1B6823F0070222493B681343D0
:1020BC000B60204B1B6803F007033A689A4201D06F
:1020CC00012332E07B681B6803F00403002B08D06B
:1020DC00194B5B6823F4E0627B68DB681649134399
:1020EC004B607B681B6803F00803002B09D0124B74
:1020FC005B6823F460527B681B69DB000E49134359
:10210C004B6000F021F802460B4B5B681B0903F097
:10211C000F030A49CB5C22FA03F3094A1360094BFB
:10212C001B681846FFF78AF9002318461037BD467E
:10213C0080BD00BF0020024000100240602A000851
:10214C00800000208C00002080B487B000AF0023FA
:10215C00FB600023BB6000237B6100237B600023BA
:10216C003B611E4B5B68FB60FB6803F00C03042BAC
:10217C0002D0082B03D027E0194B3B6127E0FB680A
:10218C009B0C03F00F03174AD35C7B60FB6803F4D2
:10219C008033002B10D0114B5B685B0C03F00103F8
:1021AC00114AD35CBB607B680D4A02FB03F2BB682F
:1021BC00B2FBF3F37B6104E07B680C4A02FB03F394
:1021CC007B617B693B6102E0054B3B6100BF3B6976
:1021DC0018461C37BD4680BC704700BF001002403B
:1021EC0000127A00702A0008802A000800093D00BD
:1021FC0080B485B000AF78600A4B1B680A4AA2FB1A
:10220C0003235B0A7A6802FB03F3FB6000BFFB68E5
:10221C005A1EFA60002BF9D100BF00BF1437BD461F
:10222C0080BC704780000020D34D621080B582B016
:10223C0000AF78607B68002B01D1012341E07B6803
:10224C0093F83D30DBB2002B06D17B68002283F87B
:10225C003C207868FEF78AFF7B68022283F83D20D9
:10226C007B681A687B6804331946104600F056FAEE
:10227C007B68012283F846207B68012283F83E208C
:10228C007B68012283F83F207B68012283F8402081
:10229C007B68012283F841207B68012283F842206D
:1022AC007B68012283F843207B68012283F8442059
:1022BC007B68012283F845207B68012283F83D204E
:1022CC00002318460837BD4680BD000080B485B099
:1022DC0000AF78607B6893F83D30DBB2012B01D006
:1022EC00012335E07B68022283F83D207B681B6864
:1022FC00DA687B681B6842F00102DA607B681B6855
:10230C00164A934209D07B681B68B3F1804F04D006
:10231C007B681B68124A934211D17B681B689B68CF
:10232C0003F00703FB60FB68062B10D07B681B686F
:10233C001A687B681B6842F001021A6007E07B6830
:10234C001B681A687B681B6842F001021A60002344
:10235C0018461437BD4680BC704700BF002C0140A6
:10236C000004004080B584B000AF78607B681B68C7
:10237C00DB68FB607B681B681B69BB60BB6803F098
:10238C000203002B20D0FB6803F00203002B1BD0B0
:10239C007B681B686FF002021A617B6801221A7756
:1023AC007B681B689B6903F00303002B03D07868E0
:1023BC0000F098F905E0786800F08BF9786800F087
:1023CC009AF97B6800221A77BB6803F00403002B90
:1023DC0020D0FB6803F00403002B1BD07B681B6828
:1023EC006FF004021A617B6802221A777B681B6803
:1023FC009B6903F44073002B03D0786800F072F9EA
:10240C0005E0786800F065F9786800F074F97B688D
:10241C0000221A77BB6803F00803002B20D0FB685E
:10242C0003F00803002B1BD07B681B686FF00802BD
:10243C001A617B6804221A777B681B68DB6903F0DE
:10244C000303002B03D0786800F04CF905E07868A2
:10245C0000F03FF9786800F04EF97B6800221A779B
:10246C00BB6803F01003002B20D0FB6803F01003B3
:10247C00002B1BD07B681B686FF010021A617B6805
:10248C0008221A777B681B68DB6903F44073002B06
:10249C0003D0786800F026F905E0786800F019F9A7
:1024AC00786800F028F97B6800221A77BB6803F083
:1024BC000103002B0CD0FB6803F00103002B07D0A9
:1024CC007B681B686FF001021A617868FEF7E8FD03
:1024DC00BB6803F08003002B0CD0FB6803F0800377
:1024EC00002B07D07B681B686FF080021A6178683C
:1024FC0000F06FFABB6803F04003002B0CD0FB68B4
:10250C0003F04003002B07D07B681B686FF0400280
:10251C001A61786800F0F8F8BB6803F02003002B10
:10252C000CD0FB6803F02003002B07D07B681B68E2
:10253C006FF020021A61786800F042FA00BF103781
:10254C00BD4680BD80B584B000AF78603960002393
:10255C00FB737B6893F83C30012B01D10223B4E070
:10256C007B68012283F83C207B68022283F83D20A3
:10257C007B681B689B68BB60BB6823F07703BB6000
:10258C00BB6823F47F43BB607B681B68BA689A60A6
:10259C003B681B68B3F5005F3ED0B3F5005F00F2FB
:1025AC008780B3F5805F00F08680B3F5805F7FD8BD
:1025BC00702B1AD0702B7BD8602B50D0602B77D817
:1025CC00502B3CD0502B73D8402B58D0402B6FD86D
:1025DC00302B64D0302B6BD8202B60D0202B67D8BD
:1025EC00002B5CD0102B5AD062E07B6818683B68DB
:1025FC0099683B685A683B68DB6800F06AF97B684D
:10260C001B689B68BB60BB6843F07703BB607B684F
:10261C001B68BA689A604FE07B6818683B689968D9
:10262C003B685A683B68DB6800F053F97B681B68B1
:10263C009A687B681B6842F480429A603CE07B6835
:10264C0018683B6859683B68DB681A4600F0CAF8A2
:10265C007B681B685021184600F021F92CE07B6840
:10266C0018683B6859683B68DB681A4600F0E8F864
:10267C007B681B686021184600F011F91CE07B6830
:10268C0018683B6859683B68DB681A4600F0AAF882
:10269C007B681B684021184600F001F90CE07B6850
:1026AC001A683B681B681946104600F0F8F803E0FE
:1026BC000123FB7300E000BF7B68012283F83D20FF
:1026CC007B68002283F83C20FB7B18461037BD4604
:1026DC0080BD80B483B000AF786000BF0C37BD46BE
:1026EC0080BC704780B483B000AF786000BF0C37FB
:1026FC00BD4680BC704780B483B000AF786000BF2B
:10270C000C37BD4680BC704780B483B000AF786096
:10271C0000BF0C37BD4680BC7047000080B485B04C
:10272C0000AF786039607B681B68FB607B682B4A64
:10273C00934207D07B68B3F1804F03D07B68284A63
:10274C00934208D1FB6823F07003FB603B685B6825
:10275C00FA681343FB607B68204A934207D07B687E
:10276C00B3F1804F03D07B681D4A934208D1FB68BC
:10277C0023F44073FB603B68DB68FA681343FB602F
:10278C00FB6823F080023B685B691343FB607B684A
:10279C00FA681A603B689A687B68DA623B681A6868
:1027AC007B689A627B680D4A934203D13B681A6935
:1027BC007B681A637B6801225A617B681B6903F092
:1027CC000103002B05D07B681B6923F001027B6899
:1027DC001A6100BF1437BD4680BC7047002C014005
:1027EC000004004080B487B000AFF860B9607A6034
:1027FC00FB681B6A7B61FB681B6A23F00102FB68A8
:10280C001A62FB689B693B613B6923F0F0033B61F7
:10281C007B681B013A6913433B617B6923F00A0314
:10282C007B617A69BB6813437B61FB683A699A6187
:10283C00FB687A691A6200BF1C37BD4680BC7047C2
:10284C0080B487B000AFF860B9607A60FB681B6A2F
:10285C007B61FB681B6A23F01002FB681A62FB6841
:10286C009B693B613B6923F470433B617B681B03B1
:10287C003A6913433B617B6923F0A0037B61BB681E
:10288C001B017A6913437B61FB683A699A61FB68A7
:10289C007A691A6200BF1C37BD4680BC704780B491
:1028AC0085B000AF786039607B689B68FB60FB6823
:1028BC0023F07003FB603A68FB68134343F0070393
:1028CC00FB607B68FA689A6000BF1437BD4680BC19
:1028DC00704780B487B000AFF860B9607A603B6035
:1028EC00FB689B687B617B6923F47F437B613B685E
:1028FC001A027B681A43BB6813437A6913437B61E2
:10290C00FB687A699A6000BF1C37BD4680BC704773
:10291C0080B485B000AF786039607B6893F83C3048
:10292C00012B01D1022341E07B68012283F83C207A
:10293C007B68022283F83D207B681B685B68FB6028
:10294C007B681B689B68BB60FB6823F07003FB60B3
:10295C003B681B68FA681343FB607B681B68FA686A
:10296C005A607B681B68144A934209D07B681B68C9
:10297C00B3F1804F04D07B681B68104A93420CD192
:10298C00BB6823F08003BB603B685B68BA68134389
:10299C00BB607B681B68BA689A607B68012283F80D
:1029AC003D207B68002283F83C2000231846143716
:1029BC00BD4680BC704700BF002C014000040040A5
:1029CC0080B483B000AF786000BF0C37BD4680BCCC
:1029DC00704780B483B000AF786000BF0C37BD4641
:1029EC0080BC704770B500260C4D0D4C641BA410B8
:1029FC00A64209D100F022F800260A4D0A4C641BAD
:102A0C00A410A64205D170BD55F8043B9847013679
:102A1C00EEE755F8043B98470136F2E7842A0008A4
:102A2C00842A0008842A0008882A000803460244E5
:102A3C00934200D1704703F8011BF9E7F8B500BFCA
:102A4C00F8BC08BC9E467047F8B500BFF8BC08BC83
:042A5C009E467047DB
:102A6000000000000000000001020304060708093E
:102A700002030405060708090A0B0C0D0E0F1010BF
:042A8000010200004F
:042A84003101000814
:042A88000D01000834
:102A8C000100000001000000010000000100000036
:102A9C00C80000000100000001000000010000005F
:102AAC0001000000C800000001000000010000004F
:102ABC000100000001000000C80000000A00000036
:102ACC0008000000020000000100000001000000EE
:102ADC0001000000010000000A0000000B000000D3
:102AEC000C0000000D0000000A00000002000000B5
:102AFC000800000040792430191202780010000000
:102B0C0000127A000A0000006400000010000000AF
:042B1C0001000000B4
:04000005080013D10B
:00000001FF
